{
  "contractName": "AffiliateProgram",
  "abi": [
    {
      "constant": true,
      "inputs": [
        {
          "name": "",
          "type": "address"
        }
      ],
      "name": "balances",
      "outputs": [
        {
          "name": "",
          "type": "uint256"
        }
      ],
      "payable": false,
      "stateMutability": "view",
      "type": "function"
    },
    {
      "constant": true,
      "inputs": [],
      "name": "retired",
      "outputs": [
        {
          "name": "",
          "type": "bool"
        }
      ],
      "payable": false,
      "stateMutability": "view",
      "type": "function"
    },
    {
      "constant": true,
      "inputs": [],
      "name": "paused",
      "outputs": [
        {
          "name": "",
          "type": "bool"
        }
      ],
      "payable": false,
      "stateMutability": "view",
      "type": "function"
    },
    {
      "constant": true,
      "inputs": [],
      "name": "maximumRate",
      "outputs": [
        {
          "name": "",
          "type": "uint256"
        }
      ],
      "payable": false,
      "stateMutability": "view",
      "type": "function"
    },
    {
      "constant": false,
      "inputs": [],
      "name": "pause",
      "outputs": [],
      "payable": false,
      "stateMutability": "nonpayable",
      "type": "function"
    },
    {
      "constant": true,
      "inputs": [],
      "name": "owner",
      "outputs": [
        {
          "name": "",
          "type": "address"
        }
      ],
      "payable": false,
      "stateMutability": "view",
      "type": "function"
    },
    {
      "constant": true,
      "inputs": [
        {
          "name": "",
          "type": "address"
        }
      ],
      "name": "lastDepositTimes",
      "outputs": [
        {
          "name": "",
          "type": "uint256"
        }
      ],
      "payable": false,
      "stateMutability": "view",
      "type": "function"
    },
    {
      "constant": true,
      "inputs": [],
      "name": "baselineRate",
      "outputs": [
        {
          "name": "",
          "type": "uint256"
        }
      ],
      "payable": false,
      "stateMutability": "view",
      "type": "function"
    },
    {
      "constant": true,
      "inputs": [
        {
          "name": "",
          "type": "address"
        }
      ],
      "name": "whitelistRates",
      "outputs": [
        {
          "name": "",
          "type": "uint256"
        }
      ],
      "payable": false,
      "stateMutability": "view",
      "type": "function"
    },
    {
      "constant": true,
      "inputs": [],
      "name": "lastDepositTime",
      "outputs": [
        {
          "name": "",
          "type": "uint256"
        }
      ],
      "payable": false,
      "stateMutability": "view",
      "type": "function"
    },
    {
      "constant": true,
      "inputs": [],
      "name": "storeAddress",
      "outputs": [
        {
          "name": "",
          "type": "address"
        }
      ],
      "payable": false,
      "stateMutability": "view",
      "type": "function"
    },
    {
      "constant": false,
      "inputs": [
        {
          "name": "_newOwner",
          "type": "address"
        }
      ],
      "name": "transferOwnership",
      "outputs": [],
      "payable": false,
      "stateMutability": "nonpayable",
      "type": "function"
    },
    {
      "inputs": [
        {
          "name": "_storeAddress",
          "type": "address"
        }
      ],
      "payable": false,
      "stateMutability": "nonpayable",
      "type": "constructor"
    },
    {
      "anonymous": false,
      "inputs": [
        {
          "indexed": false,
          "name": "affiliate",
          "type": "address"
        },
        {
          "indexed": false,
          "name": "productId",
          "type": "uint256"
        },
        {
          "indexed": false,
          "name": "amount",
          "type": "uint256"
        }
      ],
      "name": "AffiliateCredit",
      "type": "event"
    },
    {
      "anonymous": false,
      "inputs": [
        {
          "indexed": false,
          "name": "affiliate",
          "type": "address"
        },
        {
          "indexed": false,
          "name": "to",
          "type": "address"
        },
        {
          "indexed": false,
          "name": "amount",
          "type": "uint256"
        }
      ],
      "name": "Withdraw",
      "type": "event"
    },
    {
      "anonymous": false,
      "inputs": [
        {
          "indexed": false,
          "name": "affiliate",
          "type": "address"
        },
        {
          "indexed": false,
          "name": "amount",
          "type": "uint256"
        }
      ],
      "name": "Whitelisted",
      "type": "event"
    },
    {
      "anonymous": false,
      "inputs": [
        {
          "indexed": false,
          "name": "rate",
          "type": "uint256"
        },
        {
          "indexed": false,
          "name": "amount",
          "type": "uint256"
        }
      ],
      "name": "RateChanged",
      "type": "event"
    },
    {
      "anonymous": false,
      "inputs": [],
      "name": "Pause",
      "type": "event"
    },
    {
      "anonymous": false,
      "inputs": [],
      "name": "Unpause",
      "type": "event"
    },
    {
      "anonymous": false,
      "inputs": [
        {
          "indexed": true,
          "name": "previousOwner",
          "type": "address"
        },
        {
          "indexed": true,
          "name": "newOwner",
          "type": "address"
        }
      ],
      "name": "OwnershipTransferred",
      "type": "event"
    },
    {
      "constant": true,
      "inputs": [],
      "name": "isAffiliateProgram",
      "outputs": [
        {
          "name": "",
          "type": "bool"
        }
      ],
      "payable": false,
      "stateMutability": "pure",
      "type": "function"
    },
    {
      "constant": true,
      "inputs": [
        {
          "name": "_affiliate",
          "type": "address"
        },
        {
          "name": "",
          "type": "uint256"
        },
        {
          "name": "",
          "type": "uint256"
        },
        {
          "name": "",
          "type": "uint256"
        }
      ],
      "name": "rateFor",
      "outputs": [
        {
          "name": "",
          "type": "uint256"
        }
      ],
      "payable": false,
      "stateMutability": "view",
      "type": "function"
    },
    {
      "constant": true,
      "inputs": [
        {
          "name": "_affiliate",
          "type": "address"
        },
        {
          "name": "_productId",
          "type": "uint256"
        },
        {
          "name": "_purchaseId",
          "type": "uint256"
        },
        {
          "name": "_purchaseAmount",
          "type": "uint256"
        }
      ],
      "name": "cutFor",
      "outputs": [
        {
          "name": "",
          "type": "uint256"
        }
      ],
      "payable": false,
      "stateMutability": "view",
      "type": "function"
    },
    {
      "constant": false,
      "inputs": [
        {
          "name": "_affiliate",
          "type": "address"
        },
        {
          "name": "_purchaseId",
          "type": "uint256"
        }
      ],
      "name": "credit",
      "outputs": [],
      "payable": true,
      "stateMutability": "payable",
      "type": "function"
    },
    {
      "constant": false,
      "inputs": [],
      "name": "withdraw",
      "outputs": [],
      "payable": false,
      "stateMutability": "nonpayable",
      "type": "function"
    },
    {
      "constant": false,
      "inputs": [
        {
          "name": "_affiliate",
          "type": "address"
        },
        {
          "name": "_to",
          "type": "address"
        }
      ],
      "name": "withdrawFrom",
      "outputs": [],
      "payable": false,
      "stateMutability": "nonpayable",
      "type": "function"
    },
    {
      "constant": false,
      "inputs": [
        {
          "name": "_to",
          "type": "address"
        }
      ],
      "name": "retire",
      "outputs": [],
      "payable": false,
      "stateMutability": "nonpayable",
      "type": "function"
    },
    {
      "constant": false,
      "inputs": [
        {
          "name": "_affiliate",
          "type": "address"
        },
        {
          "name": "_rate",
          "type": "uint256"
        }
      ],
      "name": "whitelist",
      "outputs": [],
      "payable": false,
      "stateMutability": "nonpayable",
      "type": "function"
    },
    {
      "constant": false,
      "inputs": [
        {
          "name": "_newRate",
          "type": "uint256"
        }
      ],
      "name": "setBaselineRate",
      "outputs": [],
      "payable": false,
      "stateMutability": "nonpayable",
      "type": "function"
    },
    {
      "constant": false,
      "inputs": [
        {
          "name": "_newRate",
          "type": "uint256"
        }
      ],
      "name": "setMaximumRate",
      "outputs": [],
      "payable": false,
      "stateMutability": "nonpayable",
      "type": "function"
    },
    {
      "constant": false,
      "inputs": [],
      "name": "unpause",
      "outputs": [],
      "payable": false,
      "stateMutability": "nonpayable",
      "type": "function"
    }
  ],
  "bytecode": "0x608060405260008060146101000a81548160ff02191690831515021790555060006004556113886006556000600760146101000a81548160ff02191690831515021790555034801561005057600080fd5b5060405160208061162f83398101806040528101908080519060200190929190505050336000806101000a81548173ffffffffffffffffffffffffffffffffffffffff021916908373ffffffffffffffffffffffffffffffffffffffff160217905550600073ffffffffffffffffffffffffffffffffffffffff168173ffffffffffffffffffffffffffffffffffffffff16141515156100ef57600080fd5b80600760006101000a81548173ffffffffffffffffffffffffffffffffffffffff021916908373ffffffffffffffffffffffffffffffffffffffff1602179055506001600060146101000a81548160ff021916908315150217905550506114d48061015b6000396000f300608060405260043610610133576000357c0100000000000000000000000000000000000000000000000000000000900463ffffffff16806327e235e3146101385780632eb38ae01461018f5780633ccfd60b146101be5780633f4ba83a146101d557806351b35095146101ec5780635c975abb1461026157806361cdf9df146102905780638456cb59146102bb578063879125a4146102d25780638d647185146102ff5780638da5cb5b1461032c578063957be30c1461038357806398fc55d8146103da5780639e6371ba14610427578063ab274fec1461046a578063af9a842d14610495578063bd28f351146104ec578063cd43ee9914610517578063e230e24614610546578063e81f02b6146105bb578063ef6506db1461061e578063f2c4da931461065e578063f2fde38b146106b5575b600080fd5b34801561014457600080fd5b50610179600480360381019080803573ffffffffffffffffffffffffffffffffffffffff1690602001909291905050506106f8565b6040518082815260200191505060405180910390f35b34801561019b57600080fd5b506101a4610710565b604051808215151515815260200191505060405180910390f35b3480156101ca57600080fd5b506101d3610723565b005b3480156101e157600080fd5b506101ea61074b565b005b3480156101f857600080fd5b5061024b600480360381019080803573ffffffffffffffffffffffffffffffffffffffff169060200190929190803590602001909291908035906020019092919080359060200190929190505050610825565b6040518082815260200191505060405180910390f35b34801561026d57600080fd5b506102766108b2565b604051808215151515815260200191505060405180910390f35b34801561029c57600080fd5b506102a56108c5565b6040518082815260200191505060405180910390f35b3480156102c757600080fd5b506102d06108cb565b005b3480156102de57600080fd5b506102fd6004803603810190808035906020019092919050505061098b565b005b34801561030b57600080fd5b5061032a60048036038101908080359060200190929190505050610a41565b005b34801561033857600080fd5b50610341610af7565b604051808273ffffffffffffffffffffffffffffffffffffffff1673ffffffffffffffffffffffffffffffffffffffff16815260200191505060405180910390f35b34801561038f57600080fd5b506103c4600480360381019080803573ffffffffffffffffffffffffffffffffffffffff169060200190929190505050610b1c565b6040518082815260200191505060405180910390f35b3480156103e657600080fd5b50610425600480360381019080803573ffffffffffffffffffffffffffffffffffffffff16906020019092919080359060200190929190505050610b34565b005b34801561043357600080fd5b50610468600480360381019080803573ffffffffffffffffffffffffffffffffffffffff169060200190929190505050610c53565b005b34801561047657600080fd5b5061047f610d6a565b6040518082815260200191505060405180910390f35b3480156104a157600080fd5b506104d6600480360381019080803573ffffffffffffffffffffffffffffffffffffffff169060200190929190505050610d70565b6040518082815260200191505060405180910390f35b3480156104f857600080fd5b50610501610d88565b6040518082815260200191505060405180910390f35b34801561052357600080fd5b5061052c610d8e565b604051808215151515815260200191505060405180910390f35b34801561055257600080fd5b506105a5600480360381019080803573ffffffffffffffffffffffffffffffffffffffff169060200190929190803590602001909291908035906020019092919080359060200190929190505050610d97565b6040518082815260200191505060405180910390f35b3480156105c757600080fd5b5061061c600480360381019080803573ffffffffffffffffffffffffffffffffffffffff169060200190929190803573ffffffffffffffffffffffffffffffffffffffff169060200190929190505050610deb565b005b61065c600480360381019080803573ffffffffffffffffffffffffffffffffffffffff16906020019092919080359060200190929190505050610eb6565b005b34801561066a57600080fd5b506106736110df565b604051808273ffffffffffffffffffffffffffffffffffffffff1673ffffffffffffffffffffffffffffffffffffffff16815260200191505060405180910390f35b3480156106c157600080fd5b506106f6600480360381019080803573ffffffffffffffffffffffffffffffffffffffff169060200190929190505050611105565b005b60016020528060005260406000206000915090505481565b600760149054906101000a900460ff1681565b600060149054906101000a900460ff1615151561073f57600080fd5b610749333361125a565b565b6000809054906101000a900473ffffffffffffffffffffffffffffffffffffffff1673ffffffffffffffffffffffffffffffffffffffff163373ffffffffffffffffffffffffffffffffffffffff161415156107a657600080fd5b600060149054906101000a900460ff1615156107c157600080fd5b600760149054906101000a900460ff161515156107dd57600080fd5b60008060146101000a81548160ff0219169083151502179055507f7805862f689e2f13df9f062ff482ad3ad112aca9e0847911ed832e158c525b3360405160405180910390a1565b600080600560008773ffffffffffffffffffffffffffffffffffffffff1673ffffffffffffffffffffffffffffffffffffffff168152602001908152602001600020549050600081111561089857600181141561088557600091506108a9565b6108918160065461141b565b91506108a9565b6108a660045460065461141b565b91505b50949350505050565b600060149054906101000a900460ff1681565b60065481565b6000809054906101000a900473ffffffffffffffffffffffffffffffffffffffff1673ffffffffffffffffffffffffffffffffffffffff163373ffffffffffffffffffffffffffffffffffffffff1614151561092657600080fd5b600060149054906101000a900460ff1615151561094257600080fd5b6001600060146101000a81548160ff0219169083151502179055507f6985a02210a168e66602d3235cb6db0e70f92b3ba4d376a33c0f3d9434bff62560405160405180910390a1565b6000809054906101000a900473ffffffffffffffffffffffffffffffffffffffff1673ffffffffffffffffffffffffffffffffffffffff163373ffffffffffffffffffffffffffffffffffffffff161415156109e657600080fd5b61138881111515156109f757600080fd5b806006819055507f4ac9052a820bf4f8c02d7588587cae835573b5b99ea7ad4ca002f17f319f7186600182604051808381526020018281526020019250505060405180910390a150565b6000809054906101000a900473ffffffffffffffffffffffffffffffffffffffff1673ffffffffffffffffffffffffffffffffffffffff163373ffffffffffffffffffffffffffffffffffffffff16141515610a9c57600080fd5b6113888111151515610aad57600080fd5b806004819055507f4ac9052a820bf4f8c02d7588587cae835573b5b99ea7ad4ca002f17f319f7186600082604051808381526020018281526020019250505060405180910390a150565b6000809054906101000a900473ffffffffffffffffffffffffffffffffffffffff1681565b60026020528060005260406000206000915090505481565b6000809054906101000a900473ffffffffffffffffffffffffffffffffffffffff1673ffffffffffffffffffffffffffffffffffffffff163373ffffffffffffffffffffffffffffffffffffffff16141515610b8f57600080fd5b6113888111151515610ba057600080fd5b80600560008473ffffffffffffffffffffffffffffffffffffffff1673ffffffffffffffffffffffffffffffffffffffff168152602001908152602001600020819055507f6ea640312e182de387819fbeb13be00db3171a445412852248559054871c41998282604051808373ffffffffffffffffffffffffffffffffffffffff1673ffffffffffffffffffffffffffffffffffffffff1681526020018281526020019250505060405180910390a15050565b6000809054906101000a900473ffffffffffffffffffffffffffffffffffffffff1673ffffffffffffffffffffffffffffffffffffffff163373ffffffffffffffffffffffffffffffffffffffff16141515610cae57600080fd5b600060149054906101000a900460ff161515610cc957600080fd5b610ce162278d0060035461143490919063ffffffff16565b42111515610cee57600080fd5b8073ffffffffffffffffffffffffffffffffffffffff166108fc3073ffffffffffffffffffffffffffffffffffffffff16319081150290604051600060405180830381858888f19350505050158015610d4b573d6000803e3d6000fd5b506001600760146101000a81548160ff02191690831515021790555050565b60045481565b60056020528060005260406000206000915090505481565b60035481565b60006001905090565b600080610da686868686610825565b90506113888111151515610db957600080fd5b610de0612710610dd2838661145290919063ffffffff16565b61148d90919063ffffffff16565b915050949350505050565b6000809054906101000a900473ffffffffffffffffffffffffffffffffffffffff1673ffffffffffffffffffffffffffffffffffffffff163373ffffffffffffffffffffffffffffffffffffffff16141515610e4657600080fd5b610e9b62278d00600260008573ffffffffffffffffffffffffffffffffffffffff1673ffffffffffffffffffffffffffffffffffffffff1681526020019081526020016000205461143490919063ffffffff16565b42111515610ea857600080fd5b610eb2828261125a565b5050565b600760009054906101000a900473ffffffffffffffffffffffffffffffffffffffff1673ffffffffffffffffffffffffffffffffffffffff163373ffffffffffffffffffffffffffffffffffffffff161480610f5e57506000809054906101000a900473ffffffffffffffffffffffffffffffffffffffff1673ffffffffffffffffffffffffffffffffffffffff163373ffffffffffffffffffffffffffffffffffffffff16145b1515610f6957600080fd5b600060149054906101000a900460ff16151515610f8557600080fd5b600034111515610f9457600080fd5b600073ffffffffffffffffffffffffffffffffffffffff168273ffffffffffffffffffffffffffffffffffffffff1614151515610fd057600080fd5b34600160008473ffffffffffffffffffffffffffffffffffffffff1673ffffffffffffffffffffffffffffffffffffffff1681526020019081526020016000206000828254019250508190555042600260008473ffffffffffffffffffffffffffffffffffffffff1673ffffffffffffffffffffffffffffffffffffffff16815260200190815260200160002081905550426003819055507fd1fa77542732ca3dfad2ca54730f6a1fb7f1c56975cee8fb937d1bd7f129e6ac828234604051808473ffffffffffffffffffffffffffffffffffffffff1673ffffffffffffffffffffffffffffffffffffffff168152602001838152602001828152602001935050505060405180910390a15050565b600760009054906101000a900473ffffffffffffffffffffffffffffffffffffffff1681565b6000809054906101000a900473ffffffffffffffffffffffffffffffffffffffff1673ffffffffffffffffffffffffffffffffffffffff163373ffffffffffffffffffffffffffffffffffffffff1614151561116057600080fd5b600073ffffffffffffffffffffffffffffffffffffffff168173ffffffffffffffffffffffffffffffffffffffff161415151561119c57600080fd5b8073ffffffffffffffffffffffffffffffffffffffff166000809054906101000a900473ffffffffffffffffffffffffffffffffffffffff1673ffffffffffffffffffffffffffffffffffffffff167f8be0079c531659141344cd1fd0a4f28419497f9722a3daafe3b4186f6b6457e060405160405180910390a3806000806101000a81548173ffffffffffffffffffffffffffffffffffffffff021916908373ffffffffffffffffffffffffffffffffffffffff16021790555050565b600080600160008573ffffffffffffffffffffffffffffffffffffffff1673ffffffffffffffffffffffffffffffffffffffff168152602001908152602001600020541115156112a957600080fd5b600160008473ffffffffffffffffffffffffffffffffffffffff1673ffffffffffffffffffffffffffffffffffffffff1681526020019081526020016000205490506000600160008573ffffffffffffffffffffffffffffffffffffffff1673ffffffffffffffffffffffffffffffffffffffff168152602001908152602001600020819055508173ffffffffffffffffffffffffffffffffffffffff166108fc829081150290604051600060405180830381858888f19350505050158015611376573d6000803e3d6000fd5b507f9b1bfa7fa9ee420a16e124f794c35ac9f90472acc99140eb2f6447c714cad8eb838383604051808473ffffffffffffffffffffffffffffffffffffffff1673ffffffffffffffffffffffffffffffffffffffff1681526020018373ffffffffffffffffffffffffffffffffffffffff1673ffffffffffffffffffffffffffffffffffffffff168152602001828152602001935050505060405180910390a1505050565b600081831061142a578161142c565b825b905092915050565b600080828401905083811015151561144857fe5b8091505092915050565b60008060008414156114675760009150611486565b828402905082848281151561147857fe5b0414151561148257fe5b8091505b5092915050565b600080828481151561149b57fe5b04905080915050929150505600a165627a7a72305820a297b309a4ea1504e2ea06a4f1b3e509297579d94bfe8056080ca3f4818f80b10029",
  "source": "pragma solidity ^0.4.19;\r\n\r\nimport \"../math/SafeMath.sol\";\r\nimport \"../math/Math.sol\";\r\nimport \"../lifecycle/Pausable.sol\";\r\n\r\n/**\r\n * @title AffiliateProrgam\r\n * @notice Affiliate program manages referral comissions on sales.\r\n *\r\n * There are two tiers of affiliates: whitelistd and non-whitelisted.\r\n * Non-whitelisted are paid the baseline rate. Whitelisted rates are individualized.\r\n *\r\n * This contract holds the Ether for the affiliate and it can be withdrawn by that affiliate.\r\n *\r\n * However, there is a deadline: The goal is that no money is sitting in the\r\n * contract unclaimed for longer than 30 days.\r\n *\r\n * After 30 days, the funds are forfitted and the owner may withdraw the funds\r\n * credited to that affiliate.\r\n *\r\n * Rates are encoded in basis points (1/100th of a percent). For example, 1050\r\n * means 10.5%.\r\n *\r\n * There is a hardcoded maximum affiliate rate of 50%. Also, there is a\r\n * configurable maximum rate that caps the rate given to any affiliate,\r\n * including whitelisted. The maximumRate has precedence over any whitelisted rate.\r\n *\r\n * Setting a maximumRate of 0 effectively disables new credits to all affiliates.\r\n *\r\n * The contract can be paused by the owner.\r\n *\r\n * If there have been no deposits for 30 days, the owner can choose to retire\r\n * the contract and withdraw all remaining funds. This is final and the contract\r\n * cannot be unpaused after this event.\r\n *\r\n * Our store is built to support upgradable AffiliatePrograms - this is\r\n * recommended.\r\n *\r\n * Also, your store must be designed to operate normally when the affiliate program\r\n * is paused or missing.\r\n *\r\n */\r\ncontract AffiliateProgram is Pausable {\r\n  using SafeMath for uint256;\r\n\r\n  event AffiliateCredit(\r\n    // The address of the affiliate\r\n    address affiliate,\r\n    // The store's ID of what was sold (e.g. a tokenId)\r\n    uint256 productId,\r\n    // The amount owed this affiliate in this sale\r\n    uint256 amount\r\n  );\r\n\r\n  event Withdraw(address affiliate, address to, uint256 amount);\r\n  event Whitelisted(address affiliate, uint256 amount);\r\n  event RateChanged(uint256 rate, uint256 amount);\r\n\r\n  // @notice A mapping from affiliate address to their balance\r\n  mapping (address => uint256) public balances;\r\n\r\n  // @notice A mapping from affiliate address to the time of last deposit\r\n  mapping (address => uint256) public lastDepositTimes;\r\n\r\n  // @notice The last deposit globally\r\n  uint256 public lastDepositTime;\r\n\r\n  // @notice The maximum rate for any affiliate\r\n  // @dev The hard-coded maximum affiliate rate (in basis points)\r\n  // All rates are measured in basis points (1/100 of a percent)\r\n  // Values 0-10,000 map to 0%-100%\r\n  uint256 private constant hardCodedMaximumRate = 5000;\r\n\r\n  // @notice The commission exiration time\r\n  // @dev Affiliate commissions expire if they are unclaimed after this amount of time\r\n  uint256 private constant commissionExpiryTime = 30 days;\r\n\r\n  // @notice The baseline affiliate rate (in basis points) for non-whitelisted referrals\r\n  uint256 public baselineRate = 0;\r\n\r\n  // @notice A mapping from whitelisted referrals to their individual rates\r\n  mapping (address => uint256) public whitelistRates;\r\n\r\n  // @notice The maximum rate for any affiliate\r\n  // @dev overrides individual rates. This can be used to clip the rate used in bulk, if necessary\r\n  uint256 public maximumRate = 5000;\r\n\r\n  // @notice The address of the store selling products\r\n  address public storeAddress;\r\n\r\n  // @notice The contract is retired\r\n  // @dev If we decide to retire this program, this value will be set to true\r\n  // and then the contract cannot be unpaused\r\n  bool public retired = false;\r\n\r\n\r\n  /**\r\n   * @dev Modifier to make a function only callable by the store or the owner\r\n   */\r\n  modifier onlyStoreOrOwner() {\r\n    require(\r\n      msg.sender == storeAddress ||\r\n      msg.sender == owner);\r\n    _;\r\n  }\r\n\r\n  /**\r\n   * @dev AffiliateProgram constructor - keeps the address of it's parent store\r\n   * and pauses the contract\r\n   */\r\n  function AffiliateProgram(address _storeAddress) public {\r\n    require(_storeAddress != address(0));\r\n    storeAddress = _storeAddress;\r\n    paused = true;\r\n  }\r\n\r\n  /**\r\n   * @notice Exposes that this contract thinks it is an AffiliateProgram\r\n   */\r\n  function isAffiliateProgram() public pure returns (bool) {\r\n    return true;\r\n  }\r\n\r\n  /**\r\n   * @notice returns the commission rate for a sale\r\n   *\r\n   * @dev rateFor returns the rate which should be used to calculate the comission\r\n   *  for this affiliate/sale combination, in basis points (1/100th of a percent).\r\n   *\r\n   *  We may want to completely blacklist a particular address (e.g. a known bad actor affilite).\r\n   *  To that end, if the whitelistRate is exactly 1bp, we use that as a signal for blacklisting\r\n   *  and return a rate of zero. The upside is that we can completely turn off\r\n   *  sending transactions to a particular address when this is needed. The\r\n   *  downside is that you can't issued 1/100th of a percent commission.\r\n   *  However, since this is such a small amount its an acceptable tradeoff.\r\n   *\r\n   *  This implementation does not use the _productId, _pruchaseId,\r\n   *  _purchaseAmount, but we include them here as part of the protocol, because\r\n   *  they could be useful in more advanced affiliate programs.\r\n   *\r\n   * @param _affiliate - the address of the affiliate to check for\r\n   */\r\n  function rateFor(\r\n    address _affiliate,\r\n    uint256 /*_productId*/,\r\n    uint256 /*_purchaseId*/,\r\n    uint256 /*_purchaseAmount*/)\r\n    public\r\n    view\r\n    returns (uint256)\r\n  {\r\n    uint256 whitelistedRate = whitelistRates[_affiliate];\r\n    if(whitelistedRate > 0) {\r\n      // use 1 bp as a blacklist signal\r\n      if(whitelistedRate == 1) {\r\n        return 0;\r\n      } else {\r\n        return Math.min256(whitelistedRate, maximumRate);\r\n      }\r\n    } else {\r\n      return Math.min256(baselineRate, maximumRate);\r\n    }\r\n  }\r\n\r\n  /**\r\n   * @notice cutFor returns the affiliate cut for a sale\r\n   * @dev cutFor returns the cut (amount in wei) to give in comission to the affiliate\r\n   *\r\n   * @param _affiliate - the address of the affiliate to check for\r\n   * @param _productId - the productId in the sale\r\n   * @param _purchaseId - the purchaseId in the sale\r\n   * @param _purchaseAmount - the purchaseAmount\r\n   */\r\n  function cutFor(\r\n    address _affiliate,\r\n    uint256 _productId,\r\n    uint256 _purchaseId,\r\n    uint256 _purchaseAmount)\r\n    public\r\n    view\r\n    returns (uint256)\r\n  {\r\n    uint256 rate = rateFor(\r\n      _affiliate,\r\n      _productId,\r\n      _purchaseId,\r\n      _purchaseAmount);\r\n    require(rate <= hardCodedMaximumRate);\r\n    return (_purchaseAmount.mul(rate)).div(10000);\r\n  }\r\n\r\n  /**\r\n   * @notice credit an affiliate for a purchase\r\n   * @dev credit accepts eth and credits the affiliate's balance for the amount\r\n   *\r\n   * @param _affiliate - the address of the affiliate to credit\r\n   * @param _purchaseId - the purchaseId of the sale\r\n   */\r\n  function credit(\r\n    address _affiliate,\r\n    uint256 _purchaseId)\r\n    public\r\n    onlyStoreOrOwner\r\n    whenNotPaused\r\n    payable\r\n  {\r\n    require(msg.value > 0);\r\n    require(_affiliate != address(0));\r\n    balances[_affiliate] += msg.value;\r\n    lastDepositTimes[_affiliate] = now; // solium-disable-line security/no-block-members\r\n    lastDepositTime = now; // solium-disable-line security/no-block-members\r\n    AffiliateCredit(_affiliate, _purchaseId, msg.value);\r\n  }\r\n\r\n  /**\r\n   * @dev _performWithdraw performs a withdrawal from address _from and\r\n   * transfers it to _to. This can be different because we allow the owner\r\n   * to withdraw unclaimed funds after a period of time.\r\n   *\r\n   * @param _from - the address to subtract balance from\r\n   * @param _to - the address to transfer ETH to\r\n   */\r\n  function _performWithdraw(address _from, address _to) private {\r\n    require(balances[_from] > 0);\r\n    uint256 balanceValue = balances[_from];\r\n    balances[_from] = 0;\r\n    _to.transfer(balanceValue);\r\n    Withdraw(_from, _to, balanceValue);\r\n  }\r\n\r\n  /**\r\n   * @notice withdraw\r\n   * @dev withdraw the msg.sender's balance\r\n   */\r\n  function withdraw() public whenNotPaused {\r\n    _performWithdraw(msg.sender, msg.sender);\r\n  }\r\n\r\n  /**\r\n   * @notice withdraw from a specific account\r\n   * @dev withdrawFrom allows the owner to withdraw an affiliate's unclaimed\r\n   * ETH, after the alotted time.\r\n   *\r\n   * This function can be called even if the contract is paused\r\n   *\r\n   * @param _affiliate - the address of the affiliate\r\n   * @param _to - the address to send ETH to\r\n   */\r\n  function withdrawFrom(address _affiliate, address _to) onlyOwner public {\r\n    // solium-disable-next-line security/no-block-members\r\n    require(now > lastDepositTimes[_affiliate].add(commissionExpiryTime));\r\n    _performWithdraw(_affiliate, _to);\r\n  }\r\n\r\n  /**\r\n   * @notice retire the contract (dangerous)\r\n   * @dev retire - withdraws the entire balance and marks the contract as retired, which\r\n   * prevents unpausing.\r\n   *\r\n   * If no new comissions have been deposited for the alotted time,\r\n   * then the owner may pause the program and retire this contract.\r\n   * This may only be performed once as the contract cannot be unpaused.\r\n   *\r\n   * We do this as an alternative to selfdestruct, because certain operations\r\n   * can still be performed after the contract has been selfdestructed, such as\r\n   * the owner withdrawing ETH accidentally sent here.\r\n   */\r\n  function retire(address _to) onlyOwner whenPaused public {\r\n    // solium-disable-next-line security/no-block-members\r\n    require(now > lastDepositTime.add(commissionExpiryTime));\r\n    _to.transfer(this.balance);\r\n    retired = true;\r\n  }\r\n\r\n  /**\r\n   * @notice whitelist an affiliate address\r\n   * @dev whitelist - white listed affiliates can receive a different\r\n   *   rate than the general public (whitelisted accounts would generally get a\r\n   *   better rate).\r\n   * @param _affiliate - the affiliate address to whitelist\r\n   * @param _rate - the rate, in basis-points (1/100th of a percent) to give this affiliate in each sale. NOTE: a rate of exactly 1 is the signal to blacklist this affiliate. That is, a rate of 1 will set the commission to 0.\r\n   */\r\n  function whitelist(address _affiliate, uint256 _rate) onlyOwner public {\r\n    require(_rate <= hardCodedMaximumRate);\r\n    whitelistRates[_affiliate] = _rate;\r\n    Whitelisted(_affiliate, _rate);\r\n  }\r\n\r\n  /**\r\n   * @notice set the rate for non-whitelisted affiliates\r\n   * @dev setBaselineRate - sets the baseline rate for any affiliate that is not whitelisted\r\n   * @param _newRate - the rate, in bp (1/100th of a percent) to give any non-whitelisted affiliate. Set to zero to \"turn off\"\r\n   */\r\n  function setBaselineRate(uint256 _newRate) onlyOwner public {\r\n    require(_newRate <= hardCodedMaximumRate);\r\n    baselineRate = _newRate;\r\n    RateChanged(0, _newRate);\r\n  }\r\n\r\n  /**\r\n   * @notice set the maximum rate for any affiliate\r\n   * @dev setMaximumRate - Set the maximum rate for any affiliate, including whitelists. That is, this overrides individual rates.\r\n   * @param _newRate - the rate, in bp (1/100th of a percent)\r\n   */\r\n  function setMaximumRate(uint256 _newRate) onlyOwner public {\r\n    require(_newRate <= hardCodedMaximumRate);\r\n    maximumRate = _newRate;\r\n    RateChanged(1, _newRate);\r\n  }\r\n\r\n  /**\r\n   * @notice unpause the contract\r\n   * @dev called by the owner to unpause, returns to normal state. Will not\r\n   * unpause if the contract is retired.\r\n   */\r\n  function unpause() onlyOwner whenPaused public {\r\n    require(!retired);\r\n    paused = false;\r\n    Unpause();\r\n  }\r\n\r\n}\r\n",
  "sourcePath": "C:\\Users\\tbhattacharya\\Desktop\\Softwares\\PerfInfra\\Crudeoil\\contracts\\Affiliate\\AffiliateProgram.sol",
  "compiler": {
    "name": "solc",
    "version": "0.4.24+commit.e67f0147.Emscripten.clang"
  },
  "schemaVersion": "2.0.0",
  "updatedAt": "2018-07-30T18:36:30.952Z"
}