{
  "contractName": "carrierCore",
  "abi": [
    {
      "constant": true,
      "inputs": [
        {
          "name": "_tankId",
          "type": "uint256"
        }
      ],
      "name": "tankDetails",
      "outputs": [
        {
          "name": "",
          "type": "bool"
        },
        {
          "name": "",
          "type": "bool"
        }
      ],
      "payable": false,
      "stateMutability": "view",
      "type": "function"
    },
    {
      "constant": true,
      "inputs": [],
      "name": "cfoAddress",
      "outputs": [
        {
          "name": "",
          "type": "address"
        }
      ],
      "payable": false,
      "stateMutability": "view",
      "type": "function"
    },
    {
      "constant": true,
      "inputs": [],
      "name": "ceoAddress",
      "outputs": [
        {
          "name": "",
          "type": "address"
        }
      ],
      "payable": false,
      "stateMutability": "view",
      "type": "function"
    },
    {
      "constant": false,
      "inputs": [
        {
          "name": "_newWithdrawalAddress",
          "type": "address"
        }
      ],
      "name": "setWithdrawalAddress",
      "outputs": [],
      "payable": false,
      "stateMutability": "nonpayable",
      "type": "function"
    },
    {
      "constant": false,
      "inputs": [
        {
          "name": "_newCEO",
          "type": "address"
        }
      ],
      "name": "setCEO",
      "outputs": [],
      "payable": false,
      "stateMutability": "nonpayable",
      "type": "function"
    },
    {
      "constant": false,
      "inputs": [
        {
          "name": "_newCOO",
          "type": "address"
        }
      ],
      "name": "setCOO",
      "outputs": [],
      "payable": false,
      "stateMutability": "nonpayable",
      "type": "function"
    },
    {
      "constant": true,
      "inputs": [
        {
          "name": "_carrierId",
          "type": "uint256"
        }
      ],
      "name": "carrierDetails",
      "outputs": [
        {
          "name": "",
          "type": "bool"
        }
      ],
      "payable": false,
      "stateMutability": "view",
      "type": "function"
    },
    {
      "constant": false,
      "inputs": [],
      "name": "unpause",
      "outputs": [],
      "payable": false,
      "stateMutability": "nonpayable",
      "type": "function"
    },
    {
      "constant": false,
      "inputs": [
        {
          "name": "_newCFO",
          "type": "address"
        }
      ],
      "name": "setCFO",
      "outputs": [],
      "payable": false,
      "stateMutability": "nonpayable",
      "type": "function"
    },
    {
      "constant": true,
      "inputs": [],
      "name": "paused",
      "outputs": [
        {
          "name": "",
          "type": "bool"
        }
      ],
      "payable": false,
      "stateMutability": "view",
      "type": "function"
    },
    {
      "constant": false,
      "inputs": [],
      "name": "withdrawBalance",
      "outputs": [],
      "payable": false,
      "stateMutability": "nonpayable",
      "type": "function"
    },
    {
      "constant": false,
      "inputs": [],
      "name": "pause",
      "outputs": [],
      "payable": false,
      "stateMutability": "nonpayable",
      "type": "function"
    },
    {
      "constant": true,
      "inputs": [],
      "name": "cooAddress",
      "outputs": [
        {
          "name": "",
          "type": "address"
        }
      ],
      "payable": false,
      "stateMutability": "view",
      "type": "function"
    },
    {
      "constant": false,
      "inputs": [],
      "name": "addnewTank",
      "outputs": [],
      "payable": false,
      "stateMutability": "nonpayable",
      "type": "function"
    },
    {
      "constant": true,
      "inputs": [],
      "name": "withdrawalAddress",
      "outputs": [
        {
          "name": "",
          "type": "address"
        }
      ],
      "payable": false,
      "stateMutability": "view",
      "type": "function"
    },
    {
      "constant": false,
      "inputs": [],
      "name": "addCarrieToFleet",
      "outputs": [],
      "payable": false,
      "stateMutability": "nonpayable",
      "type": "function"
    },
    {
      "anonymous": false,
      "inputs": [
        {
          "indexed": false,
          "name": "_tankId",
          "type": "uint256"
        }
      ],
      "name": "Tankerisfull",
      "type": "event"
    },
    {
      "anonymous": false,
      "inputs": [
        {
          "indexed": false,
          "name": "_tankId",
          "type": "uint256"
        },
        {
          "indexed": false,
          "name": "serviceReqID",
          "type": "string"
        },
        {
          "indexed": false,
          "name": "wellName",
          "type": "string"
        },
        {
          "indexed": false,
          "name": "_carrierId",
          "type": "uint256"
        }
      ],
      "name": "RemovedWater",
      "type": "event"
    },
    {
      "anonymous": false,
      "inputs": [
        {
          "indexed": false,
          "name": "_carrierId",
          "type": "uint256"
        },
        {
          "indexed": false,
          "name": "_tankId",
          "type": "uint256"
        }
      ],
      "name": "ExtractedOil",
      "type": "event"
    },
    {
      "anonymous": false,
      "inputs": [
        {
          "indexed": false,
          "name": "_carrierId",
          "type": "uint256"
        }
      ],
      "name": "addedCarrier",
      "type": "event"
    },
    {
      "anonymous": false,
      "inputs": [
        {
          "indexed": false,
          "name": "_tankId",
          "type": "uint256"
        }
      ],
      "name": "addedTank",
      "type": "event"
    },
    {
      "anonymous": false,
      "inputs": [
        {
          "indexed": false,
          "name": "newContract",
          "type": "address"
        }
      ],
      "name": "ContractUpgrade",
      "type": "event"
    },
    {
      "anonymous": false,
      "inputs": [],
      "name": "Paused",
      "type": "event"
    },
    {
      "anonymous": false,
      "inputs": [],
      "name": "Unpaused",
      "type": "event"
    },
    {
      "constant": false,
      "inputs": [
        {
          "name": "_tankId",
          "type": "uint256"
        }
      ],
      "name": "tankerIsFull",
      "outputs": [],
      "payable": false,
      "stateMutability": "nonpayable",
      "type": "function"
    },
    {
      "constant": false,
      "inputs": [
        {
          "name": "_tankId",
          "type": "uint256"
        },
        {
          "name": "serviceReqID",
          "type": "string"
        },
        {
          "name": "wellName",
          "type": "string"
        },
        {
          "name": "_carrierId",
          "type": "uint256"
        }
      ],
      "name": "extractWater",
      "outputs": [],
      "payable": false,
      "stateMutability": "nonpayable",
      "type": "function"
    },
    {
      "constant": false,
      "inputs": [
        {
          "name": "_carrierId",
          "type": "uint256"
        },
        {
          "name": "_tankId",
          "type": "uint256"
        }
      ],
      "name": "extractCrudeOil",
      "outputs": [],
      "payable": false,
      "stateMutability": "nonpayable",
      "type": "function"
    }
  ],
  "bytecode": "0x60806040526000600360146101000a81548160ff02191690831515021790555034801561002b57600080fd5b506114ca8061003b6000396000f300608060405260043610610107576000357c0100000000000000000000000000000000000000000000000000000000900463ffffffff16806302cb17951461010c5780630519ce791461015c5780630a0f8168146101b357806321b8092e1461020a578063274ae22f1461024d57806327d7874c146102845780632ba73c15146102c75780632f2fd6c01461030a5780633f4ba83a1461034f5780634e0a3379146103665780635c975abb146103a95780635fd8c710146103d857806360e75a2c146103ef5780638456cb591461041c578063b047fb5014610433578063d05d88881461048a578063e6ec4ba4146104a1578063f2bcd02214610564578063f2fba72c146105bb575b600080fd5b34801561011857600080fd5b50610137600480360381019080803590602001909291905050506105d2565b6040518083151515158152602001821515151581526020019250505060405180910390f35b34801561016857600080fd5b50610171610626565b604051808273ffffffffffffffffffffffffffffffffffffffff1673ffffffffffffffffffffffffffffffffffffffff16815260200191505060405180910390f35b3480156101bf57600080fd5b506101c861064c565b604051808273ffffffffffffffffffffffffffffffffffffffff1673ffffffffffffffffffffffffffffffffffffffff16815260200191505060405180910390f35b34801561021657600080fd5b5061024b600480360381019080803573ffffffffffffffffffffffffffffffffffffffff169060200190929190505050610671565b005b34801561025957600080fd5b50610282600480360381019080803590602001909291908035906020019092919050505061074c565b005b34801561029057600080fd5b506102c5600480360381019080803573ffffffffffffffffffffffffffffffffffffffff16906020019092919050505061081b565b005b3480156102d357600080fd5b50610308600480360381019080803573ffffffffffffffffffffffffffffffffffffffff1690602001909291905050506108f5565b005b34801561031657600080fd5b50610335600480360381019080803590602001909291905050506109d0565b604051808215151515815260200191505060405180910390f35b34801561035b57600080fd5b506103646109fd565b005b34801561037257600080fd5b506103a7600480360381019080803573ffffffffffffffffffffffffffffffffffffffff169060200190929190505050610abc565b005b3480156103b557600080fd5b506103be610b97565b604051808215151515815260200191505060405180910390f35b3480156103e457600080fd5b506103ed610baa565b005b3480156103fb57600080fd5b5061041a60048036038101908080359060200190929190505050610d3d565b005b34801561042857600080fd5b50610431610ddc565b005b34801561043f57600080fd5b50610448610f4c565b604051808273ffffffffffffffffffffffffffffffffffffffff1673ffffffffffffffffffffffffffffffffffffffff16815260200191505060405180910390f35b34801561049657600080fd5b5061049f610f72565b005b3480156104ad57600080fd5b5061056260048036038101908080359060200190929190803590602001908201803590602001908080601f0160208091040260200160405190810160405280939291908181526020018383808284378201915050505050509192919290803590602001908201803590602001908080601f0160208091040260200160405190810160405280939291908181526020018383808284378201915050505050509192919290803590602001909291905050506110f7565b005b34801561057057600080fd5b50610579611307565b604051808273ffffffffffffffffffffffffffffffffffffffff1673ffffffffffffffffffffffffffffffffffffffff16815260200191505060405180910390f35b3480156105c757600080fd5b506105d061132d565b005b6000806007600084815260200190815260200160002060000160009054906101000a900460ff166007600085815260200190815260200160002060000160019054906101000a900460ff1691509150915091565b600160009054906101000a900473ffffffffffffffffffffffffffffffffffffffff1681565b6000809054906101000a900473ffffffffffffffffffffffffffffffffffffffff1681565b6000809054906101000a900473ffffffffffffffffffffffffffffffffffffffff1673ffffffffffffffffffffffffffffffffffffffff163373ffffffffffffffffffffffffffffffffffffffff161415156106cc57600080fd5b600073ffffffffffffffffffffffffffffffffffffffff168173ffffffffffffffffffffffffffffffffffffffff161415151561070857600080fd5b80600360006101000a81548173ffffffffffffffffffffffffffffffffffffffff021916908373ffffffffffffffffffffffffffffffffffffffff16021790555050565b600115156007600083815260200190815260200160002060000160019054906101000a900460ff16151514151561078257600080fd5b60006007600083815260200190815260200160002060000160016101000a81548160ff021916908315150217905550600015156006600084815260200190815260200160002060000160009054906101000a905050507f5a1b970e7546a202dec85465c19517072f4a8191f6d95cb6b9220638fd7a48138282604051808381526020018281526020019250505060405180910390a15050565b6000809054906101000a900473ffffffffffffffffffffffffffffffffffffffff1673ffffffffffffffffffffffffffffffffffffffff163373ffffffffffffffffffffffffffffffffffffffff1614151561087657600080fd5b600073ffffffffffffffffffffffffffffffffffffffff168173ffffffffffffffffffffffffffffffffffffffff16141515156108b257600080fd5b806000806101000a81548173ffffffffffffffffffffffffffffffffffffffff021916908373ffffffffffffffffffffffffffffffffffffffff16021790555050565b6000809054906101000a900473ffffffffffffffffffffffffffffffffffffffff1673ffffffffffffffffffffffffffffffffffffffff163373ffffffffffffffffffffffffffffffffffffffff1614151561095057600080fd5b600073ffffffffffffffffffffffffffffffffffffffff168173ffffffffffffffffffffffffffffffffffffffff161415151561098c57600080fd5b80600260006101000a81548173ffffffffffffffffffffffffffffffffffffffff021916908373ffffffffffffffffffffffffffffffffffffffff16021790555050565b60006006600083815260200190815260200160002060000160009054906101000a900460ff169050919050565b6000809054906101000a900473ffffffffffffffffffffffffffffffffffffffff1673ffffffffffffffffffffffffffffffffffffffff163373ffffffffffffffffffffffffffffffffffffffff16141515610a5857600080fd5b600360149054906101000a900460ff161515610a7357600080fd5b6000600360146101000a81548160ff0219169083151502179055507fa45f47fdea8a1efdd9029a5691c7f759c32b7c698632b563573e155625d1693360405160405180910390a1565b6000809054906101000a900473ffffffffffffffffffffffffffffffffffffffff1673ffffffffffffffffffffffffffffffffffffffff163373ffffffffffffffffffffffffffffffffffffffff16141515610b1757600080fd5b600073ffffffffffffffffffffffffffffffffffffffff168173ffffffffffffffffffffffffffffffffffffffff1614151515610b5357600080fd5b80600160006101000a81548173ffffffffffffffffffffffffffffffffffffffff021916908373ffffffffffffffffffffffffffffffffffffffff16021790555050565b600360149054906101000a900460ff1681565b600160009054906101000a900473ffffffffffffffffffffffffffffffffffffffff1673ffffffffffffffffffffffffffffffffffffffff163373ffffffffffffffffffffffffffffffffffffffff161480610c5257506000809054906101000a900473ffffffffffffffffffffffffffffffffffffffff1673ffffffffffffffffffffffffffffffffffffffff163373ffffffffffffffffffffffffffffffffffffffff16145b1515610c5d57600080fd5b600073ffffffffffffffffffffffffffffffffffffffff16600360009054906101000a900473ffffffffffffffffffffffffffffffffffffffff1673ffffffffffffffffffffffffffffffffffffffff1614151515610cbb57600080fd5b600360009054906101000a900473ffffffffffffffffffffffffffffffffffffffff1673ffffffffffffffffffffffffffffffffffffffff166108fc3073ffffffffffffffffffffffffffffffffffffffff16319081150290604051600060405180830381858888f19350505050158015610d3a573d6000803e3d6000fd5b50565b600015156007600083815260200190815260200160002060000160009054906101000a900460ff161515141515610d7357600080fd5b60016007600083815260200190815260200160002060000160006101000a81548160ff0219169083151502179055507f4ec12c3de77eb7c9c9a21319106ac06f9202f92dd9da5a4bc48b50e49942f09e816040518082815260200191505060405180910390a150565b600260009054906101000a900473ffffffffffffffffffffffffffffffffffffffff1673ffffffffffffffffffffffffffffffffffffffff163373ffffffffffffffffffffffffffffffffffffffff161480610e8457506000809054906101000a900473ffffffffffffffffffffffffffffffffffffffff1673ffffffffffffffffffffffffffffffffffffffff163373ffffffffffffffffffffffffffffffffffffffff16145b80610edc5750600160009054906101000a900473ffffffffffffffffffffffffffffffffffffffff1673ffffffffffffffffffffffffffffffffffffffff163373ffffffffffffffffffffffffffffffffffffffff16145b1515610ee757600080fd5b600360149054906101000a900460ff16151515610f0357600080fd5b6001600360146101000a81548160ff0219169083151502179055507f9e87fac88ff661f02d44f95383c817fece4bce600a3dab7a54406878b965e75260405160405180910390a1565b600260009054906101000a900473ffffffffffffffffffffffffffffffffffffffff1681565b610f7a61146a565b60008060009054906101000a900473ffffffffffffffffffffffffffffffffffffffff1673ffffffffffffffffffffffffffffffffffffffff163373ffffffffffffffffffffffffffffffffffffffff16141515610fd757600080fd5b6040805190810160405280600015158152602001600015158152509150600160058390806001815401808255809150509060018203906000526020600020016000909192909190915060008201518160000160006101000a81548160ff02191690831515021790555060208201518160000160016101000a81548160ff0219169083151502179055505050039050816007600083815260200190815260200160002060008201518160000160006101000a81548160ff02191690831515021790555060208201518160000160016101000a81548160ff0219169083151502179055509050507f2f337665e6e5e99f91e78f689d6b45c3bd7c08595e92f1ff18f17febfc404063816040518082815260200191505060405180910390a15050565b600115156007600086815260200190815260200160002060000160009054906101000a900460ff16151514151561112d57600080fd5b600115156006600083815260200190815260200160002060000160009054906101000a900460ff16151514151561116357600080fd5b60016007600086815260200190815260200160002060000160016101000a81548160ff02191690831515021790555060006007600086815260200190815260200160002060000160006101000a81548160ff021916908315150217905550600015156006600083815260200190815260200160002060000160009054906101000a905050507f7655003511f19e8249056f77c57076f346edbc10bf2190bfa23253e59423db3084848484604051808581526020018060200180602001848152602001838103835286818151815260200191508051906020019080838360005b8381101561125d578082015181840152602081019050611242565b50505050905090810190601f16801561128a5780820380516001836020036101000a031916815260200191505b50838103825285818151815260200191508051906020019080838360005b838110156112c35780820151818401526020810190506112a8565b50505050905090810190601f1680156112f05780820380516001836020036101000a031916815260200191505b50965050505050505060405180910390a150505050565b600360009054906101000a900473ffffffffffffffffffffffffffffffffffffffff1681565b611335611488565b60008060009054906101000a900473ffffffffffffffffffffffffffffffffffffffff1673ffffffffffffffffffffffffffffffffffffffff163373ffffffffffffffffffffffffffffffffffffffff1614151561139257600080fd5b602060405190810160405280600115158152509150600160048390806001815401808255809150509060018203906000526020600020016000909192909190915060008201518160000160006101000a81548160ff0219169083151502179055505050039050816006600083815260200190815260200160002060008201518160000160006101000a81548160ff0219169083151502179055509050507f04229b1c5b9a8704af36054645dbe8e22ef42054ada1741005980dffb65035f2816040518082815260200191505060405180910390a15050565b60408051908101604052806000151581526020016000151581525090565b60206040519081016040528060001515815250905600a165627a7a723058207c71cce63cfebc4a67798d6c6da8fb1b0b95df214537939c244470bfc71bce260029",
  "source": "pragma solidity ^0.4.19;\r\n// solium-disable\r\n\r\n\r\n/**\r\n * @title SafeMath\r\n * @dev Math operations with safety checks that throw on error\r\n */\r\nlibrary SafeMath {\r\n\r\n  /**\r\n  * @dev Multiplies two numbers, throws on overflow.\r\n  */\r\n  function mul(uint256 a, uint256 b) internal pure returns (uint256) {\r\n    if (a == 0) {\r\n      return 0;\r\n    }\r\n    uint256 c = a * b;\r\n    assert(c / a == b);\r\n    return c;\r\n  }\r\n\r\n  /**\r\n  * @dev Integer division of two numbers, truncating the quotient.\r\n  */\r\n  function div(uint256 a, uint256 b) internal pure returns (uint256) {\r\n    // assert(b > 0); // Solidity automatically throws when dividing by 0\r\n    uint256 c = a / b;\r\n    // assert(a == b * c + a % b); // There is no case in which this doesn't hold\r\n    return c;\r\n  }\r\n\r\n  /**\r\n  * @dev Substracts two numbers, throws on overflow (i.e. if subtrahend is greater than minuend).\r\n  */\r\n  function sub(uint256 a, uint256 b) internal pure returns (uint256) {\r\n    assert(b <= a);\r\n    return a - b;\r\n  }\r\n\r\n  /**\r\n  * @dev Adds two numbers, throws on overflow.\r\n  */\r\n  function add(uint256 a, uint256 b) internal pure returns (uint256) {\r\n    uint256 c = a + b;\r\n    assert(c >= a);\r\n    return c;\r\n  }\r\n}\r\n\r\n\r\n/**\r\n*@author Tanmay Bhattacharya\r\n */\r\n/**\r\n * @title LicenseAccessControl\r\n * @notice This contract defines organizational roles and permissions.\r\n */\r\ncontract AccessControl {\r\n  using SafeMath for uint;\r\n  using SafeMath for uint256;\r\n  /**\r\n   * @notice ContractUpgrade is the event that will be emitted if we set a new contract address\r\n   */\r\n  event ContractUpgrade(address newContract);\r\n  event Paused();\r\n  event Unpaused();\r\n\r\n  /**\r\n   * @notice CEO's address FOOBAR\r\n   */\r\n  address public ceoAddress;\r\n\r\n  /**\r\n   * @notice CFO's address\r\n   */\r\n  address public cfoAddress;\r\n\r\n  /**\r\n   * @notice COO's address\r\n   */\r\n  address public cooAddress;\r\n\r\n  /**\r\n   * @notice withdrawal address\r\n   */\r\n  address public withdrawalAddress;\r\n\r\n  bool public paused = false;\r\n\r\n  /**\r\n   * @dev Modifier to make a function only callable by the CEO\r\n   */\r\n  modifier onlyCEO() {\r\n    require(msg.sender == ceoAddress);\r\n    _;\r\n  }\r\n\r\n  /**\r\n   * @dev Modifier to make a function only callable by the CFO\r\n   */\r\n  modifier onlyCFO() {\r\n    require(msg.sender == cfoAddress);\r\n    _;\r\n  }\r\n\r\n  /**\r\n   * @dev Modifier to make a function only callable by the COO\r\n   */\r\n  modifier onlyCOO() {\r\n    require(msg.sender == cooAddress);\r\n    _;\r\n  }\r\n\r\n  /**\r\n   * @dev Modifier to make a function only callable by C-level execs\r\n   */\r\n  modifier onlyCLevel() {\r\n    require(\r\n      msg.sender == cooAddress ||\r\n      msg.sender == ceoAddress ||\r\n      msg.sender == cfoAddress\r\n    );\r\n    _;\r\n  }\r\n\r\n  /**\r\n   * @dev Modifier to make a function only callable by CEO or CFO\r\n   */\r\n  modifier onlyCEOOrCFO() {\r\n    require(\r\n      msg.sender == cfoAddress ||\r\n      msg.sender == ceoAddress\r\n    );\r\n    _;\r\n  }\r\n\r\n  /**\r\n   * @dev Modifier to make a function only callable by CEO or COO\r\n   */\r\n  modifier onlyCEOOrCOO() {\r\n    require(\r\n      msg.sender == cooAddress ||\r\n      msg.sender == ceoAddress\r\n    );\r\n    _;\r\n  }\r\n\r\n  /**\r\n   * @notice Sets a new CEO\r\n   * @param _newCEO - the address of the new CEO\r\n   */\r\n  function setCEO(address _newCEO) external onlyCEO {\r\n    require(_newCEO != address(0));\r\n    ceoAddress = _newCEO;\r\n  }\r\n\r\n  /**\r\n   * @notice Sets a new CFO\r\n   * @param _newCFO - the address of the new CFO\r\n   */\r\n  function setCFO(address _newCFO) external onlyCEO {\r\n    require(_newCFO != address(0));\r\n    cfoAddress = _newCFO;\r\n  }\r\n\r\n  /**\r\n   * @notice Sets a new COO\r\n   * @param _newCOO - the address of the new COO\r\n   */\r\n  function setCOO(address _newCOO) external onlyCEO {\r\n    require(_newCOO != address(0));\r\n    cooAddress = _newCOO;\r\n  }\r\n\r\n  /**\r\n   * @notice Sets a new withdrawalAddress\r\n   * @param _newWithdrawalAddress - the address where we'll send the funds\r\n   */\r\n  function setWithdrawalAddress(address _newWithdrawalAddress) external onlyCEO {\r\n    require(_newWithdrawalAddress != address(0));\r\n    withdrawalAddress = _newWithdrawalAddress;\r\n  }\r\n\r\n  /**\r\n   * @notice Withdraw the balance to the withdrawalAddress\r\n   * @dev We set a withdrawal address seperate from the CFO because this allows us to withdraw to a cold wallet.\r\n   */\r\n  function withdrawBalance() external onlyCEOOrCFO {\r\n    require(withdrawalAddress != address(0));\r\n    withdrawalAddress.transfer(address(this).balance);\r\n  }\r\n\r\n  /** Pausable functionality adapted from OpenZeppelin **/\r\n\r\n  /**\r\n   * @dev Modifier to make a function callable only when the contract is not paused.\r\n   */\r\n  modifier whenNotPaused() {\r\n    require(!paused);\r\n    _;\r\n  }\r\n\r\n  /**\r\n   * @dev Modifier to make a function callable only when the contract is paused.\r\n   */\r\n  modifier whenPaused() {\r\n    require(paused);\r\n    _;\r\n  }\r\n\r\n  /**\r\n   * @notice called by any C-level to pause, triggers stopped state\r\n   */\r\n  function pause() public onlyCLevel whenNotPaused {\r\n    paused = true;\r\n    emit Paused();\r\n  }\r\n\r\n  /**\r\n   * @notice called by the CEO to unpause, returns to normal state\r\n   */\r\n  function unpause() public onlyCEO whenPaused {\r\n    paused = false;\r\n    emit Unpaused();\r\n  }\r\n}\r\n\r\n\r\ncontract carrierBase is AccessControl{\r\n    struct carrier{\r\n    bool isFree;\r\n    }\r\n    struct tank {\r\n    bool tankerIsfull;\r\n    bool waterExtracted; \r\n    }\r\n    carrier [] totalCarrierPool;\r\n    tank [] listoftanks;\r\n    mapping (uint => carrier) idToCarrier;\r\n    mapping (uint => tank) idToTank;\r\n\r\n    event addedCarrier(uint _carrierId);\r\n    event addedTank(uint _tankId);\r\n    function addCarrieToFleet() public onlyCEO {\r\n\r\n    carrier memory carrierInstance = carrier (true);\r\n    uint _id = totalCarrierPool.push(carrierInstance) - 1;\r\n    idToCarrier[_id] = carrierInstance;\r\n    emit addedCarrier(_id);\r\n    }\r\n\r\n    function addnewTank() public onlyCEO {\r\n    tank memory tankInstance = tank(false,false);\r\n    uint _id = listoftanks.push(tankInstance) - 1;\r\n    idToTank[_id] = tankInstance ;\r\n    emit addedTank(_id);\r\n    }\r\n\r\n    function tankDetails(uint _tankId) external view returns (bool,bool){\r\n      return (idToTank[_tankId].tankerIsfull,idToTank[_tankId].waterExtracted);\r\n    }\r\n    function carrierDetails(uint _carrierId) external view  returns (bool){\r\n      return idToCarrier[_carrierId].isFree;\r\n    }\r\n\r\n \r\n\r\n}\r\n\r\ncontract carrierCore is carrierBase{\r\n \r\n \r\n event Tankerisfull(uint _tankId);\r\n event RemovedWater(uint _tankId,string serviceReqID,string wellName,uint _carrierId);\r\n event ExtractedOil(uint _carrierId,uint _tankId);\r\n \r\n function tankerIsFull (uint _tankId) public { //api to be called based on iot input\r\n    require(idToTank[_tankId].tankerIsfull == false);\r\n    idToTank[_tankId].tankerIsfull = true;\r\n    emit Tankerisfull(_tankId);\r\n }\r\n \r\n function extractWater(uint _tankId,string serviceReqID,string wellName,uint _carrierId) public { //called based on Tankerisfull event\r\n    require(idToTank[_tankId].tankerIsfull==true);\r\n    require(idToCarrier[_carrierId].isFree==true);\r\n    idToTank[_tankId].waterExtracted = true;\r\n    idToTank[_tankId].tankerIsfull = false ;\r\n    idToCarrier[_carrierId].isFree==false;    //tanker is engaged now make changes to Database\r\n    emit RemovedWater(_tankId,serviceReqID,wellName,_carrierId); //capture servicereqID and put as solved\r\n }\r\n \r\n function extractCrudeOil(uint _carrierId,uint _tankId) public { //called based on Removedwater event\r\n    require(idToTank[_tankId].waterExtracted == true);\r\n    idToTank[_tankId].waterExtracted=false;\r\n    idToCarrier[_carrierId].isFree==false;\r\n    emit ExtractedOil(_carrierId,_tankId);    //tanker is free now make changes to database.\r\n    }\r\n\r\n}\r\n\r\n\r\n",
  "sourcePath": "C:\\Users\\tbhattacharya\\Desktop\\Softwares\\PerfInfra\\Crudeoil\\contracts\\crudeOil.sol",
  "compiler": {
    "name": "solc",
    "version": "0.4.24+commit.e67f0147.Emscripten.clang"
  },
  "schemaVersion": "2.0.0",
  "updatedAt": "2018-07-30T18:36:30.964Z"
}